:100000000C9434000C9449000C9449000C94490061
:100010000C9449000C9449000C9449000C9449003C
:100020000C9449000C9449000C9449000C9449002C
:100030000C9449000C9449000C9449000C9449001C
:100040000C9449000C9449000C9449000C9449000C
:100050000C9449000C9449000C9449000C944900FC
:100060000C9449000C94490011241FBECFEFD8E036
:10007000DEBFCDBF11E0A0E0B1E0EEE3F1E002C0F1
:1000800005900D92A630B107D9F70E948C000C9410
:100090009D000C94000080E188B92FEF34E39CE0D0
:1000A000215030409040E1F700C0000098E198B93D
:1000B0002FEF31EE94E0215030409040E1F700C046
:1000C000000088B92FEF31EE84E0215030408040AD
:1000D000E1F700C0000018B80895E0E0F1E080E02A
:1000E00090E021E030E0A901082E01C0440F0A94FD
:1000F000EAF744B9AFE1BEE41197F1F700C00000A0
:1001000059B14191541306C001968530910559F7B4
:1001100081E0089580E0089514B81AB888E187B99D
:100120008FEF8BB90E946D008823E1F30E944B0092
:0E0130000E946D008111FCCFF5CFF894FFCF37
:06013E00B7D777E7F700D8
:00000001FF
