:100000000C9434000C9449000C9449000C94490061
:100010000C9449000C9449000C9449000C9449003C
:100020000C9449000C9449000C9449000C9449002C
:100030000C9449000C9449000C9449000C9449001C
:100040000C9449000C9449000C9449000C9449000C
:100050000C9449000C9449000C9449000C944900FC
:100060000C9449000C94490011241FBECFEFD8E036
:10007000DEBFCDBF11E0A0E0B1E0EAE3F1E002C0F5
:1000800005900D92A630B107D9F70E948C000C9410
:100090009B000C94000084E088B92FEF39E698E1CA
:1000A000215030409040E1F700C0000094E198B941
:1000B0002FEF33EC99E0215030409040E1F700C041
:1000C000000088B92FEF35EA8EE0215030408040A3
:1000D000E1F700C0000018B80895E0E0F1E080E02A
:1000E00090E021E030E0A901082E01C0440F0A94FD
:1000F000EAF744B9AFE3BCE91197F1F700C000009B
:1001000059B14191541306C001968530910559F7B4
:1001100081E0089580E0089584E187B98FEF8BB97D
:100120000E946D008823E1F30E944B000E946D0045
:0A0130008111FCCFF5CFF894FFCF4A
:06013A00B7D777E7F700DC
:00000001FF
